:020000000728CF
:100008008031042C09008801792A8B13783021006B
:10001800990095138C1624008C1620008C1E152828
:1000280016281A2882317E2280311A2823008E0150
:10003800FF3021008E0020008E0121000E108E104E
:1000480020008E10372801308E060B30FB001C3044
:10005800FA006330F900F90B2F28FA0B2F28FB0B55
:100068002F286400372820008C1E3B283C2827288E
:100078003D280230FB000330FA00BA30F900F90BD2
:100088004328FA0B4328FB0B43285A280130200049
:100098008E060630FB000E30FA00B030F900F90B7E
:1000A8005328FA0B5328FB0B53285A2820008C1A84
:1000B8005E285F284A2860280230FB000330FA00D7
:1000C800BA30F900F90B6628FA0B6628FB0B66288C
:1000D8007E28013020008E060330FB000630FA002F
:1000E8007730F900F90B7628FA0B7628FB0B76287F
:1000F80064007E2820008C1E822883286D280E101C
:10010800823164228031230015138131E32180314B
:1001180020008E148F2803100030031801302000AF
:10012800B500813189218031F90079082000B300B8
:10013800813189218031F90079082000B2008131AC
:1001480089218031F90079082000B00081318921A6
:100158008031F90079082000B100B108031DB528E5
:10016800B628042930088936230091002000321C63
:10017800BE28BF28C22823009117C22820003208B1
:1001880089362300920003102000B30C0130B3021B
:100198002300951715159516D128813189218031AD
:1001A80023009300813189218031230094002000AD
:1001B800B308031DE028E128E328F928F92882314B
:1001C8007022803101302000B3020130F900790833
:1001D80023009107031DF128F228D1280130F900E6
:1001E80079089207D128D128D12823009512823185
:1001F80024228031823170228031230015118F280A
:1002080020003108013A031D0A290B2924298231CB
:1002180024228031FF3020008E00FF308C000B300C
:10022800FB001C30FA006330F900F90B1929FA0BAE
:100238001929FB0B1929640082317E2280318F280D
:1002480020003108063A031D2A292B298F28300857
:100258002300910020003208230092000310003090
:10026800031801302000B4004929813189218031E7
:10027800F90020003408203E8600870179088100B3
:100288000130F9007908B407492933083402031CFE
:100298004E294F29392950298231242280312300BF
:1002A800151395131515031000300318013020009D
:1002B800B4007A293408203E86008701010823000B
:1002C800930055309600AA30960095146B2995181E
:1002D8006E296F296B2970290130F9007908910777
:1002E8000130F90079082000B4077A29330834026C
:1002F800031C7F2980295E29230015118F288F2848
:100308008F288F288F288F2807280310003003187C
:100318000130F5000830F2007208F400D32995295D
:1003280095297C1898299A2901309B290030F200D8
:1003380000308231492281317D02031CA429A6297B
:10034800FC14A729FC10FC18AA29AC290130AD29F6
:10035800003072060319B129B2299529B32903304F
:10036800F3009730F200F20BB729F30BB729BC2939
:100378007C10FC1CC0297C140310F50D013082315F
:1003880049228131F200200036087202031CCD296F
:10039800CE29D0297514D0290130F402D329F408C4
:1003A800031DD729D8299529D9297508F20072087B
:1003B8002000B50702308E067508E22908001030C3
:1003C800F2007208F3000310003003180130F40043
:1003D800142A0030823149228131F2007208F40077
:1003E80074087D020318F929FA29FF297408F20014
:1003F8007208FD00FF290130823149228131F20063
:100408007208F40074082000360203180C2A0D2A1A
:10041800122A7408F2007208B600122A0130F30298
:10042800F308031D182A192AED291A2A1030F20098
:100438007208FD071030F20072082000B6070800A5
:1004480081318921823120003508031D2C2A482A50
:100458008E0121000E118E1120000E118E15342AE6
:10046800043020008E0608308E060630F8000E3064
:10047800F700B030F600F60B3F2AF70B3F2AF80BCF
:100488003F2A342A342A482A0800F10071184D2AD4
:10049800502A21001D15522A21001D112000111378
:1004A8004230F000F00B562A640021009D145C2AAB
:1004B8009D185F2A602A5C2A612A1C08632A0800A2
:1004C80021000C150C1623000C150C1650302100B9
:1004D8009E0009309D000800553023009600AA3080
:1004E80096009514000000000800FC01FD01B6010B
:0804F80020000928002C080077
:100600003E345134493445343E34003442347F342E
:100610004034003442346134513449344634223455
:1006200041344934493436340C340A3449347F3443
:1006300048342F3449344934493431343E34493410
:1006400049344934323401347134093405340334C3
:1006500036344934493449343634263449344934FB
:1006600049343E347E340934093409347E347F34CD
:1006700049344934493436343E34413441344134C8
:1006800022347F344134413441343E347F34493460
:100690004934493441347F34093409340934093444
:1006A0003E344134493449343A347F3408340834D0
:1006B00008347F34003441347F34413400343034E2
:1006C000403441343F3401347F3408340834143426
:1006D000633400347F344034403440347F34023457
:1006E0000C3402347F347F3402340C3410347F34C1
:1006F0003E344134413441343E347F34093409348A
:10070000093406343E344134513421345E347F346C
:100710000934193429344634463449344934493487
:100720003134013401347F34013401343F344034F6
:10073000403440343F341F342034403420341F349C
:100740003F344034383440343F3463341434083454
:100750001434633407340834703408340734613493
:100760005134493445344334003460346034003407
:100770000034003400345E340034003436344934FC
:10078000553422345034023401345134093406349F
:0A07900000345034303400340034DB
:020000040001F9
:04000E00C4C9FDDE86
:00000001FF
