:020000000D28C9
:10000800803120007F08F000042C70082000FF00D9
:1000180009008801712A8B13783021009900951303
:100028008C1624008C1620008C1E1B281C282028C7
:10003800823176228031202823008E01FF30210072
:100048008E0020008E0121000E108E1020008E10D0
:100058003D2801308E060B30A2002630A100663004
:10006800A000A00B3528A10B3528A20B35283C2869
:100078003D2820008C1E412842282D284328023084
:10008800A2000430A100BA30A000A00B4928A10B9F
:100098004928A20B492864006228013020008E06F6
:1000A8000630A2001330A100B130A000A00B5A28DE
:1000B800A10B5A28A20B5A286128622820008C1A02
:1000C80066286728512868280230A2000430A10059
:1000D800BA30A000A00B6E28A10B6E28A20B6E28C8
:1000E80064008628013020008E060330A200083004
:1000F800A1007830A000A00B7F28A10B7F28A20BBD
:100108007F28862820008C1E8A288B2876280E10A7
:1001180082315C228031230015138131CE21803158
:1001280020008E1497282000BA0181317721803170
:100138002000A0002008B6008131772180312000FE
:10014800A0002008B5008131772180312000A0006F
:100158002008B3008131772180312000A0002008D9
:10016800B400B408031DB928BA280A293308893607
:10017800230091002000351CC228C328C62823006C
:100188009117C628200035088936230092000310ED
:100198002000B60C0130B6022300951715159516E8
:1001A800D52881317721803123009300813177214F
:1001B8008031230094002000B608031DE428E528B8
:1001C800E728FF28FF28823168228031013020008B
:1001D800B6020130A000200823009107031DF5286E
:1001E800F628D52801302000A00020082300920717
:1001F800D528D528D5282300951282310C228031A4
:100208008231682280312300151197282000340894
:10021800013A031D10291129182982310C22803135
:10022800823176228031972820003408063A031D4F
:100238001E291F299728330823009100200035081C
:10024800230092002000B7013929813177218031BC
:100258002000A0003708233E86008701200881007F
:100268000130A0002008B707392936083702031CD7
:100278003E293F292929402982310C228031230037
:100288001513951315152000B70168293708233E63
:100298008600870101082300930055309600AA3094
:1002A80096009514572995185A295B2957295C29CE
:1002B80001302000A0002008230091070130200011
:1002C800A0002008B707682936083702031C6D29E3
:1002D8006E294A29230015119728972897289728C7
:1002E800972897280D28F6010830F3007308F500C1
:1002F800BE297F297F297A188229842901308529F6
:100308000030F30000308231412281312000380270
:10031800031C8F299129FA149229FA10FA189529A1
:100328009729013098290030730603199C299D29C3
:100338007F299E290330F4009730F300F30BA2299C
:10034800F40BA229A7297A10FA1CAB297A140310F6
:10035800F60D0130823141228131F3002000390845
:100368007302031CB829B929BB297614BB290130AB
:10037800F502BE29F508031DC229C3297F29C4290E
:100388007608F30073082000BA0701308E06760855
:10039800CD2908001030F3007308F400F501FC299A
:1003A8000030823141228131F3007308F50075086D
:1003B800200038020318E129E229E7297508F3002B
:1003C8007308B800E7290130823141228131F300F6
:1003D8007308F5007508200039020318F429F52977
:1003E800FA297508F3007308B900FA290130F402F4
:1003F800F408031D002A012AD429022A1030F30028
:1004080073082000B8071030F3007308B907080014
:1004180081317721823120003A08031D142A402AAD
:100428008E0121008C140C15FA308E000430200047
:100438008E000630F9001330F800B130F700F70BE2
:10044800232AF80B232AF90B232A2A2A2B2A0430D9
:1004580020008E0601308E060630F9001330F800B1
:10046800B130F700F70B362AF80B362AF90B362A83
:100478003D2A2B2A2B2A402A0800F2007218452A06
:10048800482A21001D154A2A21001D112000111398
:100498004230F100F10B4E2A640021009D14542AC9
:1004A8009D18572A582A542A592A1C085B2A0800DA
:1004B80021000C150C1623000C150C1650302100C9
:1004C8009E0009309D000800553023009600AA3090
:1004D80096009514000000000800FA01B801B9015F
:0804E80020000F28002C080081
:100600003E345134493445343E34003442347F342E
:100610004034003442346134513449344634223455
:1006200041344934493436340C340A3449347F3443
:1006300048342F3449344934493431343E34493410
:1006400049344934323401347134093405340334C3
:1006500036344934493449343634263449344934FB
:1006600049343E347E340934093409347E347F34CD
:1006700049344934493436343E34413441344134C8
:1006800022347F344134413441343E347F34493460
:100690004934493441347F34093409340934093444
:1006A0003E344134493449343A347F3408340834D0
:1006B00008347F34003441347F34413400343034E2
:1006C000403441343F3401347F3408340834143426
:1006D000633400347F344034403440347F34023457
:1006E0000C3402347F347F3402340C3410347F34C1
:1006F0003E344134413441343E347F34093409348A
:10070000093406343E344134513421345E347F346C
:100710000934193429344634463449344934493487
:100720003134013401347F34013401343F344034F6
:10073000403440343F341F342034403420341F349C
:100740003F344034383440343F3463341434083454
:100750001434633407340834703408340734613493
:100760005134493445344334003460346034003407
:100770000034003400345E340034003436344934FC
:10078000553422345034023401345134093406349F
:0A07900000345034303400340034DB
:06080000502C003400340E
:100808003B2D052C2100AA0001302100A800210061
:10081800AA082000031D3F2C210028084924210094
:10082800A0003C302005093609362100A30021002C
:100838002008033020052100A100210020084030B5
:1008480020050936093609360936093609362100E0
:10085800A2002100A80A28082100A5004924210097
:10086800A5072100A80A28082100A4002100A60045
:100878002100A700080021002808013E4924023E63
:100888002100A8072100AA030B2C230091001513AF
:1008980095131514130808002100783099002000DA
:1008A8008B130B1323008C0123008E0120008C0175
:1008B8008E012100FF308C008E00C226BF2620004A
:1008C800DC30950021009511951220000B118B1634
:1008D8000B178B172527003049241F392000AE003D
:1008E80000302000AD0020002D08062480302100B3
:1008F80020050319D52C802C2100C2262000B30125
:100908002000B00121002608210025022000B400A3
:1009180006303402031C912C922C962C20000630B1
:10092800B400962C2000B20121002608492420009A
:10093800B10020003118D124B1362000B30A2000BC
:10094800B20A3208083C031D9D2C20003008200004
:1009580034020319B42C2100A60A2000B00A962CF0
:10096800203065262100FF3C03192B2D2000403044
:10097800B2002100230865262100FF3C03192B2D16
:100988002000B20BBD2C210022080319CC2C0F2DFE
:10099800200034082100A6020F2D200033084E2520
:1009A80008002100260849242000AF002100220861
:1009B8000319DF2CFA2C2000B0012000B00AC2264F
:1009C80020002F08CD2520002030B2002100230868
:1009D80065262100FF3C03192B2D2000B20BEA2CC1
:1009E800200030080B3C031DE12C0F2DC2263230AD
:1009F8003D2620002F08D52620002030B2002100F7
:100A08002308230765262100FF3C03192B2D20000E
:100A1800B20B032D0F2D2100A60A26080903210079
:100A2800250220000319192D7A2C210021080B001A
:100A3800202D242D292D2A2DC2262C272100322DA8
:100A4800210024082100A6007A2C322D202D200018
:100A58008C1E2C2D64303D262100322D2000AD0A3D
:100A68002D0820002E0220000319AD01772C20004C
:100A78008B1393262000DC30950020000B118B1778
:100A880009000B00013402340434083410342034D3
:100A98004034803420008B132000E6006636082797
:100AA8002000E5002000661C652D5A2D20006508F1
:100AB8000F392000E7002000650E0F392000E800FC
:100AC800702D200065080F392000E8002000650E11
:100AD8000F392000E700702D200067082000E90189
:100AE800E907E907E907E90720006708053C031853
:100AF8007E2D902D2000373020006907013E8600AA
:100B08002000670845252000EB0009098105423FC0
:100B180020006B04C23FA62D200067082000EA00D1
:100B28000630EA02200037302000690786002000DE
:100B38006A0845252000EB0009098105423F6B043E
:100B4800C23FA62D6808053C0318AB2DB82D3730D9
:100B58006907013E8600680845250909EB008105FB
:100B6800423F6B05C23FCA2D200068082000EA00FA
:100B78000630EA023730690786006A084525090900
:100B8800EB008105423F6B05C23FCA2D20008B1741
:100B980008002000A100293C0319080021082000B2
:100BA800A201A207A207A207A207A2072208200003
:100BB80084008330850020003008043C0318FE2D93
:100BC80020003008073C0318EA2D132E20000530BA
:100BD800A300200030080B000000083E083E083E35
:100BE800083E083E083E2000A500200030082000EE
:100BF800A502232E200030082000A3002000300882
:100C08000B000000083E083E083E083E083E083E2D
:100C18002000A500200030082000A502232E200077
:100C2800A501200030082000A6000730A6022608EB
:100C38002000053CA3001200A60B1F2E232E200027
:100C4800A40112002000A0002000A50A2000201BFB
:100C58003826A0352000A40A2408083C031D282EA5
:100C68002000A30B232E08002000013025024E256A
:100C780008002000013EDF00DF0B432E080052264B
:100C8800402E200015302000DB0004302000DC005E
:100C98002000DB0B502EDC0B4C2E08001830DB003C
:100CA8000430DC00DB0B592EDC0B562E000008004C
:100CB8002000013EE200E20B622E080064303D266F
:100CC8005F2E2000013EE0002000E301E00B6D2EC6
:100CD800003420008C1E9026452620000230E400B7
:100CE800200063086402031D6A2E64303D26FF3429
:100CF8002000013EE10000302000E301E10B852ED9
:100D08000034643065260530E40063086402031D7E
:100D1800822E64303D26FF342000E30A0800850156
:100D28003508840020001200D70012002000DA00E5
:100D380020001200D8001200D90021003F308C009A
:100D480020005A0821008E0020008E01200057083C
:100D580021008C002000580820008C002000590831
:100D680020008E0004082000563C0318BC2EBF2E1D
:100D78000408B50008003730B50008008501373091
:100D88008400FF308000840A8000840A00308000DC
:100D9800840A8000840A04082000563C0318C52EE3
:100DA80008002000A800293C031908002808200092
:100DB800A901A907A907A907A907A90729082000C0
:100DC8008400833085002000AC012000AA012000A7
:100DD800AB0112002000A7002000AC0A2000271B4E
:100DE8000327A7352000AB0A2B08083C031DF02E6B
:100DF8002000AA0A2A08053C031DEB2E0800200043
:100E08002C08073E4E2508000B00403430342034AF
:100E180010342134703460345034613451344134E6
:100E280031345234423432347134533443347234AA
:100E380062346434543473346334763475346534CA
:100E480074342100951321008C1624008C16080098
:100E580020008C1A2D2F64303D2620008C1E322F46
:060E680064303D26080085
:020000040001F9
:04000E00C4C9FDDE86
:10E000000800E6000E00AA005500AA005500AA006C
:10E010005500AA005500AA005500AA005500AA0004
:10E0200055000A000B0011000E0015001500180025
:10E030002900200018001B0015000D00EA00070051
:10E0400004006200610009006100620004000A002F
:10E050000B0020000A00220017000E002600150009
:10E060000A00220017000E00DE000E0030004800FB
:10E0700044002200440048003000300078007C005A
:10E080003E007C00780030000A0022000B001500E2
:10E090001200170014002200290010001B001200BB
:10E0A0000D00290012001C0029000A0029001C0094
:10E0B00016000A001B001D00290015000E000D00AF
:10E0C000290016000A001D001B0012002100250077
:10E0D0000A0028000B00150012001700140022008F
:10E0E000290010001B0012000D00290020000A006A
:10E0F0001C00290016000A000D000E0029000B006C
:10E100002200290020000A00220017000E0029002A
:10E110000A0017000D00290015000A002200170050
:10E120000E0025000A003C000B001500120017002D
:10E1300014002200290010001B0012000D0029000D
:10E1400012001C0029001B000E0019001B00180003
:10E1500010001B000A00160016000E000D0029001A
:10E160000B00220029001100180015000D001200FC
:10E1700017001000290012001D0029001E001900C0
:10E1800029001D0018002900220018001E001B0095
:10E1900029001C000C001B000E000E0017002500BB
:00000001FF
