:020000000728CF
:100008008031042C09008801752A8B13783021006F
:10001800990095138C1624008C1620008C1E152828
:1000280016281A2882317A2280311A2823008E0154
:10003800FF3021008E0020008E0121000E108E104E
:1000480020008E10372801308E060B30FB001C3044
:10005800FA006330F900F90B2F28FA0B2F28FB0B55
:100068002F286400372820008C1E3B283C2827288E
:100078003D280230FB000330FA00BA30F900F90BD2
:100088004328FA0B4328FB0B43285A280130200049
:100098008E060630FB000E30FA00B030F900F90B7E
:1000A8005328FA0B5328FB0B53285A2820008C1A84
:1000B8005E285F284A2860280230FB000330FA00D7
:1000C800BA30F900F90B6628FA0B6628FB0B66288C
:1000D8007E28013020008E060330FB000630FA002F
:1000E8007730F900F90B7628FA0B7628FB0B76287F
:1000F80064007E2820008C1E822883286D280E101C
:10010800823160228031230015138131D121803161
:1001180020008E148F2803100030031801302000AF
:10012800B500813177218031F90079082000B300CA
:10013800813177218031F90079082000B2008131BE
:1001480077218031F90079082000B00081317721CA
:100158008031F90079082000B100B108031DB528E5
:10016800B628042930088936230091002000321C63
:10017800BE28BF28C22823009117C22820003208B1
:1001880089362300920003102000B30C0130B3021B
:100198002300951715159516D128813177218031BF
:1001A80023009300813177218031230094002000BF
:1001B800B308031DE028E128E328F928F92882314B
:1001C8006C22803101302000B3020130F900790837
:1001D80023009107031DF128F228D1280130F900E6
:1001E80079089207D128D128D12823009512823185
:1001F8001222803182316C228031230015118F2820
:1002080020003108013A031D0A290B2912298231DD
:100218001222803182317A2280318F2820003108E1
:10022800063A031D182919298F2830082300910040
:100238002000320823009200031000300318013018
:100248002000B4003729813177218031F90020005E
:100258003408203E86008701790881000130F900C2
:100268007908B407372933083402031C3C293D298F
:1002780027293E2982311222803123001513951334
:10028800151503100030031801302000B400682948
:100298003408203E8600870101082300930055306A
:1002A8009600AA3096009514592995185C295D295D
:1002B80059295E290130F900790891070130F900C0
:1002C80079082000B407682933083402031C6D2913
:1002D8006E294C29230015118F288F288F288F28E5
:1002E8008F288F2807280310003003180130F500E5
:1002F8000830F2007208F400C129832983297C1888
:1003080086298829013089290030F200003082319D
:10031800452281317D02031C92299429FC149529D8
:10032800FC10FC1898299A2901309B290030720684
:1003380003199F29A0298329A1290330F3009730A5
:10034800F200F20BA529F30BA529AA297C10FC1CA5
:10035800AE297C140310F50D01308231452281311C
:10036800F200200036087202031CBB29BC29BE29F2
:100378007514BE290130F402C129F408031DC529EA
:10038800C6298329C7297508F20072082000B50715
:1003980001308E067508D02908001030F200720866
:1003A800F3000310003003180130F400022A003073
:1003B800823145228131F2007208F40074087D020E
:1003C8000318E729E829ED297408F2007208FD00EE
:1003D800ED290130823145228131F2007208F400A2
:1003E8007408200036020318FA29FB29002A740829
:1003F800F2007208B600002A0130F302F308031D68
:10040800062A072ADB29082A1030F2007208FD079D
:100418001030F20072082000B607080081317721F9
:10042800823120003508031D1A2A442A8E01210032
:100438008C140C15FA308E00043020008E00063023
:10044800F8000E30F700B030F600F60B292AF70B4B
:10045800292AF80B292A302A043020008E06013078
:100468008E060630F8000E30F700B030F600F60BB6
:100478003B2AF70B3B2AF80B3B2A302A302A442A1E
:100488000800F1007118492A4C2A21001D154E2A2E
:1004980021001D11200011134230F000F00B522AE8
:1004A800640021009D14582A9D185B2A5C2A582A4A
:1004B8005D2A1C085F2A080021000C150C16230071
:1004C8000C150C16503021009E0009309D000800C4
:1004D800553023009600AA309600951400000000BD
:1004E8000800FC01FD01B60120000928002C0800C5
:100600003E345134493445343E34003442347F342E
:100610004034003442346134513449344634223455
:1006200041344934493436340C340A3449347F3443
:1006300048342F3449344934493431343E34493410
:1006400049344934323401347134093405340334C3
:1006500036344934493449343634263449344934FB
:1006600049343E347E340934093409347E347F34CD
:1006700049344934493436343E34413441344134C8
:1006800022347F344134413441343E347F34493460
:100690004934493441347F34093409340934093444
:1006A0003E344134493449343A347F3408340834D0
:1006B00008347F34003441347F34413400343034E2
:1006C000403441343F3401347F3408340834143426
:1006D000633400347F344034403440347F34023457
:1006E0000C3402347F347F3402340C3410347F34C1
:1006F0003E344134413441343E347F34093409348A
:10070000093406343E344134513421345E347F346C
:100710000934193429344634463449344934493487
:100720003134013401347F34013401343F344034F6
:10073000403440343F341F342034403420341F349C
:100740003F344034383440343F3463341434083454
:100750001434633407340834703408340734613493
:100760005134493445344334003460346034003407
:100770000034003400345E340034003436344934FC
:10078000553422345034023401345134093406349F
:0A07900000345034303400340034DB
:06080000502C003400340E
:100808003B2D052C2100AA0001302100A800210061
:10081800AA082000031D3F2C210028084924210094
:10082800A0003C302005093609362100A30021002C
:100838002008033020052100A100210020084030B5
:1008480020050936093609360936093609362100E0
:10085800A2002100A80A28082100A5004924210097
:10086800A5072100A80A28082100A4002100A60045
:100878002100A700080021002808013E4924023E63
:100888002100A8072100AA030B2C230091001513AF
:1008980095131514130808002100783099002000DA
:1008A8008B130B1323008C0123008E0120008C0175
:1008B8008E012100FF308C008E00C226BF2620004A
:1008C800DC30950021009511951220000B118B1634
:1008D8000B178B172527003049241F392000AE003D
:1008E80000302000AD0020002D08062480302100B3
:1008F80020050319D52C802C2100C2262000B30125
:100908002000B00121002608210025022000B400A3
:1009180006303402031C912C922C962C20000630B1
:10092800B400962C2000B20121002608492420009A
:10093800B10020003118D124B1362000B30A2000BC
:10094800B20A3208083C031D9D2C20003008200004
:1009580034020319B42C2100A60A2000B00A962CF0
:10096800203065262100FF3C03192B2D2000403044
:10097800B2002100230865262100FF3C03192B2D16
:100988002000B20BBD2C210022080319CC2C0F2DFE
:10099800200034082100A6020F2D200033084E2520
:1009A80008002100260849242000AF002100220861
:1009B8000319DF2CFA2C2000B0012000B00AC2264F
:1009C80020002F08CD2520002030B2002100230868
:1009D80065262100FF3C03192B2D2000B20BEA2CC1
:1009E800200030080B3C031DE12C0F2DC2263230AD
:1009F8003D2620002F08D52620002030B2002100F7
:100A08002308230765262100FF3C03192B2D20000E
:100A1800B20B032D0F2D2100A60A26080903210079
:100A2800250220000319192D7A2C210021080B001A
:100A3800202D242D292D2A2DC2262C272100322DA8
:100A4800210024082100A6007A2C322D202D200018
:100A58008C1E2C2D64303D262100322D2000AD0A3D
:100A68002D0820002E0220000319AD01772C20004C
:100A78008B1393262000DC30950020000B118B1778
:100A880009000B00013402340434083410342034D3
:100A98004034803420008B132000E6006636082797
:100AA8002000E5002000661C652D5A2D20006508F1
:100AB8000F392000E7002000650E0F392000E800FC
:100AC800702D200065080F392000E8002000650E11
:100AD8000F392000E700702D200067082000E90189
:100AE800E907E907E907E90720006708053C031853
:100AF8007E2D902D2000373020006907013E8600AA
:100B08002000670845252000EB0009098105423FC0
:100B180020006B04C23FA62D200067082000EA00D1
:100B28000630EA02200037302000690786002000DE
:100B38006A0845252000EB0009098105423F6B043E
:100B4800C23FA62D6808053C0318AB2DB82D3730D9
:100B58006907013E8600680845250909EB008105FB
:100B6800423F6B05C23FCA2D200068082000EA00FA
:100B78000630EA023730690786006A084525090900
:100B8800EB008105423F6B05C23FCA2D20008B1741
:100B980008002000A100293C0319080021082000B2
:100BA800A201A207A207A207A207A2072208200003
:100BB80084008330850020003008043C0318FE2D93
:100BC80020003008073C0318EA2D132E20000530BA
:100BD800A300200030080B000000083E083E083E35
:100BE800083E083E083E2000A500200030082000EE
:100BF800A502232E200030082000A3002000300882
:100C08000B000000083E083E083E083E083E083E2D
:100C18002000A500200030082000A502232E200077
:100C2800A501200030082000A6000730A6022608EB
:100C38002000053CA3001200A60B1F2E232E200027
:100C4800A40112002000A0002000A50A2000201BFB
:100C58003826A0352000A40A2408083C031D282EA5
:100C68002000A30B232E08002000013025024E256A
:100C780008002000013EDF00DF0B432E080052264B
:100C8800402E200015302000DB0004302000DC005E
:100C98002000DB0B502EDC0B4C2E08001830DB003C
:100CA8000430DC00DB0B592EDC0B562E000008004C
:100CB8002000013EE200E20B622E080064303D266F
:100CC8005F2E2000013EE0002000E301E00B6D2EC6
:100CD800003420008C1E9026452620000230E400B7
:100CE800200063086402031D6A2E64303D26FF3429
:100CF8002000013EE10000302000E301E10B852ED9
:100D08000034643065260530E40063086402031D7E
:100D1800822E64303D26FF342000E30A0800850156
:100D28003508840020001200D70012002000DA00E5
:100D380020001200D8001200D90021003F308C009A
:100D480020005A0821008E0020008E01200057083C
:100D580021008C002000580820008C002000590831
:100D680020008E0004082000563C0318BC2EBF2E1D
:100D78000408B50008003730B50008008501373091
:100D88008400FF308000840A8000840A00308000DC
:100D9800840A8000840A04082000563C0318C52EE3
:100DA80008002000A800293C031908002808200092
:100DB800A901A907A907A907A907A90729082000C0
:100DC8008400833085002000AC012000AA012000A7
:100DD800AB0112002000A7002000AC0A2000271B4E
:100DE8000327A7352000AB0A2B08083C031DF02E6B
:100DF8002000AA0A2A08053C031DEB2E0800200043
:100E08002C08073E4E2508000B00403430342034AF
:100E180010342134703460345034613451344134E6
:100E280031345234423432347134533443347234AA
:100E380062346434543473346334763475346534CA
:100E480074342100951321008C1624008C16080098
:100E580020008C1A2D2F64303D2620008C1E322F46
:060E680064303D26080085
:020000040001F9
:04000E00C4C9FDDE86
:10E00000080012000C0016000A0014000E001B008D
:10E0100029000F000A0012001B000E0029006200F8
:10E020000B0016000A0014000E001B0029001C0043
:10E0300011000E000D00290082000D0001000200F9
:10E04000040008001000200030002000100008002C
:10E050000400020001001200070011000E0015006C
:10E060001500180029002900E6000E00AA0055003E
:10E07000AA005500AA005500AA005500AA005500A4
:10E08000AA005500AA0055000A0022000B00150046
:10E090001200170014002200290010001B001200BB
:10E0A0000D00290012001C0029000A0029001C0094
:10E0B00016000A001B001D00290015000E000D00AF
:10E0C000290016000A001D001B0012002100290073
:10E0D0000A0028000B00150012001700140022008F
:10E0E000290010001B0012000D00290020000A006A
:10E0F0001C00290016000A000D000E0029000B006C
:10E100002200290020000A00220017000E0029002A
:10E110000A0017000D00290015000A002200170050
:10E120000E0029000A003C000B0015001200170029
:10E1300014002200290010001B0012000D0029000D
:10E1400012001C0029001B000E0019001B00180003
:10E1500010001B000A00160016000E000D0029001A
:10E160000B00220029001100180015000D001200FC
:10E1700017001000290012001D0029001E001900C0
:10E1800029001D0018002900220018001E001B0095
:10E1900029001C000C001B000E000E0017002900B7
:00000001FF
