:020000000D28C9
:10000800803120007F08F000042C70082000FF00D9
:1000180009008801742A8B13783021009900951300
:100028008C1624008C1620008C1E1B281C282028C7
:10003800823179228031202823008E01FF3021006F
:100048008E0020008E0121000E108E1020008E10D0
:100058003D2801308E060B30A2002630A100663004
:10006800A000A00B3528A10B3528A20B35283C2869
:100078003D2820008C1E412842282D284328023084
:10008800A2000430A100BA30A000A00B4928A10B9F
:100098004928A20B492864006228013020008E06F6
:1000A8000630A2001330A100B130A000A00B5A28DE
:1000B800A10B5A28A20B5A286128622820008C1A02
:1000C80066286728512868280230A2000430A10059
:1000D800BA30A000A00B6E28A10B6E28A20B6E28C8
:1000E80064008628013020008E060330A200083004
:1000F800A1007830A000A00B7F28A10B7F28A20BBD
:100108007F28862820008C1E8A288B2876280E10A7
:1001180082315F228031230015138131E021803143
:1001280020008E1497282000BA018131892180315E
:100138002000A0002008B6008131892180312000EC
:10014800A0002008B5008131892180312000A0005D
:100158002008B3008131892180312000A0002008C7
:10016800B400B408031DB928BA280A293308893607
:10017800230091002000351CC228C328C62823006C
:100188009117C628200035088936230092000310ED
:100198002000B60C0130B6022300951715159516E8
:1001A800D52881318921803123009300813189212B
:1001B8008031230094002000B608031DE428E528B8
:1001C800E728FF28FF2882316B2280310130200088
:1001D800B6020130A000200823009107031DF5286E
:1001E800F628D52801302000A00020082300920717
:1001F800D528D528D5282300951282311E22803192
:1002080082316B2280312300151197282000340891
:10021800013A031D102911292A2982311E22803111
:10022800FF3020008E00FF308C000B30A2002630FB
:10023800A1006630A000A00B1F29A10B1F29A20B4B
:100248001F292629823179228031972820003408F5
:10025800063A031D302931299728330823009100D5
:1002680020003508230092002000B7014B29813176
:10027800892180312000A0003708233E86008701AD
:10028800200881000130A0002008B7074B29360854
:100298003702031C502951293B29522982311E2239
:1002A800803123001513951315152000B7017A29FD
:1002B8003708233E86008701010823009300553044
:1002C8009600AA3096009514692995186C296D290D
:1002D80069296E2901302000A00020082300910719
:1002E80001302000A0002008B7077A293608370215
:1002F800031C7F2980295C2923001511972897283A
:1003080097289728972897280D28F6010830F30092
:100318007308F500D029912991297A1894299629EA
:10032800013097290030F3000030823144228131B6
:1003380020003802031CA129A329FA14A429FA10C1
:10034800FA18A729A9290130AA2900307306031928
:10035800AE29AF299129B0290330F4009730F30072
:10036800F30BB429F40BB429B9297A10FA1CBD2966
:100378007A140310F60D0130823144228131F300E2
:10038800200039087302031CCA29CB29CD29761409
:10039800CD290130F502D029F508031DD429D52926
:1003A8009129D6297608F30073082000BA0702308D
:1003B8008E067608DF2908001030F3007308F40071
:1003C800F5010E2A0030823144228131F30073088E
:1003D800F5007508200038020318F329F429F929D3
:1003E8007508F3007308B800F929013082314422F6
:1003F8008131F3007308F5007508200039020318ED
:10040800062A072A0C2A7508F3007308B9000C2A73
:100418000130F402F408031D122A132AE629142ACB
:100428001030F30073082000B8071030F300730889
:10043800B907080081318921823120003A08031D5B
:10044800262A432A8E0121000E118E1120000E113A
:100458008E152E2A043020008E0608308E060630AF
:10046800F9001330F800B130F700F70B392AF80B10
:10047800392AF90B392A402A2E2A2E2A432A08001B
:10048800F2007218482A4B2A21001D154D2A210016
:100498001D11200011134230F100F10B512A6400A4
:1004A80021009D14572A9D185A2A5B2A572A5C2A2C
:1004B8001C085E2A080021000C150C1623000C15D8
:1004C8000C16503021009E0009309D000800553060
:1004D80023009600AA30960095140000000008003A
:0E04E800FA01B801B90120000F28002C08000D
:100600003E345134493445343E34003442347F342E
:100610004034003442346134513449344634223455
:1006200041344934493436340C340A3449347F3443
:1006300048342F3449344934493431343E34493410
:1006400049344934323401347134093405340334C3
:1006500036344934493449343634263449344934FB
:1006600049343E347E340934093409347E347F34CD
:1006700049344934493436343E34413441344134C8
:1006800022347F344134413441343E347F34493460
:100690004934493441347F34093409340934093444
:1006A0003E344134493449343A347F3408340834D0
:1006B00008347F34003441347F34413400343034E2
:1006C000403441343F3401347F3408340834143426
:1006D000633400347F344034403440347F34023457
:1006E0000C3402347F347F3402340C3410347F34C1
:1006F0003E344134413441343E347F34093409348A
:10070000093406343E344134513421345E347F346C
:100710000934193429344634463449344934493487
:100720003134013401347F34013401343F344034F6
:10073000403440343F341F342034403420341F349C
:100740003F344034383440343F3463341434083454
:100750001434633407340834703408340734613493
:100760005134493445344334003460346034003407
:100770000034003400345E340034003436344934FC
:10078000553422345034023401345134093406349F
:0A07900000345034303400340034DB
:10080000502C00340034032C2100AA0001302100B8
:10081000A8002100AA082000031D3D2C2100280863
:1008200047242100A0003C3020050936093621006C
:10083000A30021002008033020052100A100210091
:1008400020084030200509360936093609360936B0
:1008500009362100A2002100A80A28082100A500CD
:1008600047242100A5072100A80A28082100A40088
:100870002100A6002100A700080021002808013E51
:100880004724023E2100A8072100AA03092C2300C7
:0C089000910015139513151413080800AF
:1008A00021007830990020008B130B1323008C015A
:1008B00023008E0120008C0120008E0121008E017A
:1008C000FF3021008C000C108C102000AD012100A5
:1008D00095121512951115159514151420009500F3
:1008E000D325003047241F392000AB000030200002
:1008F000AA0020002A08042421002308A3072307B4
:10090000F83C2000AE0021002108033C0319192DFA
:100910008030210020050319A02C8E2C2000B2016C
:10092000B2152100260847242000B3002000B30C94
:100930002000AF0D2000B20B962C20002F08B42C05
:100940002100260847242000AC0020002D08043C8C
:10095000031CAF2C20002C08293C031DB22C2000C6
:10096000AF01B42CBE25B42C20000B19BB2C2000E9
:100970008C1E002DB42C20002E0820009500200095
:100980000B1120002F0809360936093609360936B9
:1009900009362000B00020002F0820008E00200023
:1009A000300820008C008030210020050319D92C4C
:1009B000E02C2000AD0A2D08073C0319E02CA02CE8
:1009C0002000AD012100A60A260809032100250206
:1009D00020000319EC2C832C210021080B00F32CA0
:1009E000FA2CFF2C002D20008C0120008E01DA252E
:1009F0002100072D210024082100A600832C072DAB
:100A000020008C1E012D643080262100072D20003F
:100A1000AA0A2A0820002B0220000319AA01792C17
:100A20000B000134023404340834103420344034D0
:100A300080342000A0012100230A2307230720007F
:100A4000A5002000A6012000A8012000A7018030F9
:100A500021002005200003192E2D302DA70A302D4E
:100A60002000A101200084012000863085002000A4
:100A700025082000A60010302000A8001200200049
:100A8000A400AA258326200027080319A125FF3CDE
:100A90000319002D20002708031D8E26FF3C031993
:100AA000002D2000A80B3E2D552D2000A60B592D02
:100AB000602D20001030A8001030200084023E2D50
:100AC000200025082000A60020001030A8002000EB
:100AD0000408803C031D372D200025082000A600B7
:100AE00010302000A80011002000A400AA258326B1
:100AF000200027080319A125FF3C0319002D200021
:100B00002708031D8E26FF3C0319002D2000A80B8B
:100B1000732D8A2D2000A60B8E2D952D20001030D0
:100B2000A800103020008407732D20002508200025
:100B3000A60020001030A80020000408031D6C2D22
:100B4000372D20008C0120008E018E26FF3C0319DA
:100B5000FF340034200024083F392000A300200087
:100B600024080936093609360936093609362000BF
:100B70008C002000230820008E00080020002C0894
:100B80002000A901A907A907A907A907A90720000B
:100B90002D082000290720008400833085002000D4
:100BA00000082000AF002100951321008C162400BE
:100BB0008C16080020008C1ADB2D64308026200063
:0A0BC0008C1EE02D64308026080032
:100C000005000100030001000100010003000100D4
:100C100001000100030001000100010003000100C8
:100C20000A000200060003000200060003000200A2
:100C3000020002000600030002000600030002009A
:100C4000140005000C00060004000C00060004005F
:100C5000040004000C00060004000C000600040060
:100C600028000A0018000C00080018000C000800FA
:100C70000800080018000C00080018000C0008000C
:100C80005000140030001800100030001800100050
:100C90001000100030001800100030001800100084
:100CA000A00028006000300020006000300020001C
:100CB0002000200060003000200060003000200094
:100CC00040005000C00060004000C00060004000D4
:100CD00040004000C00060004000C00060004000D4
:100CE0008000A0008000C00080008000C000800064
:100CF000800080008000C00080008000C000800074
:100D00002000013EB8000B30B400B40B852E882EB5
:100D10000800B80B8C2E0800A526892E2000BC01E7
:100D200014302000B80020008C1EFF342000B80BC7
:100D30009A2E00348326932E1530B4000430B5006B
:100D4000B40BA32EB50BA02E08001830B40004304D
:100D5000B500B40BAC2EB50BA92E00000800200086
:100D6000013EBB00BB0BB52E080064308026B22EBE
:100D70002000013EB9002000BC01B90BC02E003498
:100D800020008C1EE3269C2620000530BD0020009C
:100D90003C083D02031DBD2E64308026FF34200038
:100DA000013EBA0000302000BC01BA0BD82E00343E
:100DB0006430B8260530BD003C083D02031DD52E29
:0C0DC00064308026FF342000BC0A0800CC
:020000040001F9
:04000E00C4C9FDDE86
:10E0000006009100100018003C003E001F003E007A
:10E010003C00180000006000F000F8007C00F800F0
:10E02000F0006000000021000A000B001500120043
:10E030001700140022002900190018001F00910089
:10E040000E008000400020001000080004000200C4
:10E050000100020004000800100020004000110030
:10E06000070011000E0015001500180029002900F6
:10E07000FD000E00AA005500AA005500AA00550098
:10E08000AA005500AA005500AA005500AA00550094
:06E09000D3000100AA000C
:00000001FF
