:020000000728CF
:100008008031042C09008801752A8B13783021006F
:10001800990095138C1624008C1620008C1E152828
:1000280016281A2882317A2280311A2823008E0154
:10003800FF3021008E0020008E0121000E108E104E
:1000480020008E10372801308E060B30FB001C3044
:10005800FA006330F900F90B2F28FA0B2F28FB0B55
:100068002F286400372820008C1E3B283C2827288E
:100078003D280230FB000330FA00BA30F900F90BD2
:100088004328FA0B4328FB0B43285A280130200049
:100098008E060630FB000E30FA00B030F900F90B7E
:1000A8005328FA0B5328FB0B53285A2820008C1A84
:1000B8005E285F284A2860280230FB000330FA00D7
:1000C800BA30F900F90B6628FA0B6628FB0B66288C
:1000D8007E28013020008E060330FB000630FA002F
:1000E8007730F900F90B7628FA0B7628FB0B76287F
:1000F80064007E2820008C1E822883286D280E101C
:10010800823160228031230015138131D121803161
:1001180020008E148F2803100030031801302000AF
:10012800B500813177218031F90079082000B300CA
:10013800813177218031F90079082000B2008131BE
:1001480077218031F90079082000B00081317721CA
:100158008031F90079082000B100B108031DB528E5
:10016800B628042930088936230091002000321C63
:10017800BE28BF28C22823009117C22820003208B1
:1001880089362300920003102000B30C0130B3021B
:100198002300951715159516D128813177218031BF
:1001A80023009300813177218031230094002000BF
:1001B800B308031DE028E128E328F928F92882314B
:1001C8006C22803101302000B3020130F900790837
:1001D80023009107031DF128F228D1280130F900E6
:1001E80079089207D128D128D12823009512823185
:1001F8001222803182316C228031230015118F2820
:1002080020003108013A031D0A290B2912298231DD
:100218001222803182317A2280318F2820003108E1
:10022800063A031D182919298F2830082300910040
:100238002000320823009200031000300318013018
:100248002000B4003729813177218031F90020005E
:100258003408203E86008701790881000130F900C2
:100268007908B407372933083402031C3C293D298F
:1002780027293E2982311222803123001513951334
:10028800151503100030031801302000B400682948
:100298003408203E8600870101082300930055306A
:1002A8009600AA3096009514592995185C295D295D
:1002B80059295E290130F900790891070130F900C0
:1002C80079082000B407682933083402031C6D2913
:1002D8006E294C29230015118F288F288F288F28E5
:1002E8008F288F2807280310003003180130F500E5
:1002F8000830F2007208F400C129832983297C1888
:1003080086298829013089290030F200003082319D
:10031800452281317D02031C92299429FC149529D8
:10032800FC10FC1898299A2901309B290030720684
:1003380003199F29A0298329A1290330F3009730A5
:10034800F200F20BA529F30BA529AA297C10FC1CA5
:10035800AE297C140310F50D01308231452281311C
:10036800F200200036087202031CBB29BC29BE29F2
:100378007514BE290130F402C129F408031DC529EA
:10038800C6298329C7297508F20072082000B50715
:1003980001308E067508D02908001030F200720866
:1003A800F3000310003003180130F400022A003073
:1003B800823145228131F2007208F40074087D020E
:1003C8000318E729E829ED297408F2007208FD00EE
:1003D800ED290130823145228131F2007208F400A2
:1003E8007408200036020318FA29FB29002A740829
:1003F800F2007208B600002A0130F302F308031D68
:10040800062A072ADB29082A1030F2007208FD079D
:100418001030F20072082000B607080081317721F9
:10042800823120003508031D1A2A442A8E01210032
:100438008C140C15FA308E00043020008E00063023
:10044800F8000E30F700B030F600F60B292AF70B4B
:10045800292AF80B292A302A043020008E06013078
:100468008E060630F8000E30F700B030F600F60BB6
:100478003B2AF70B3B2AF80B3B2A302A302A442A1E
:100488000800F1007118492A4C2A21001D154E2A2E
:1004980021001D11200011134230F000F00B522AE8
:1004A800640021009D14582A9D185B2A5C2A582A4A
:1004B8005D2A1C085F2A080021000C150C16230071
:1004C8000C150C16503021009E0009309D000800C4
:1004D800553023009600AA309600951400000000BD
:1004E8000800FC01FD01B60120000928002C0800C5
:100600003E345134493445343E34003442347F342E
:100610004034003442346134513449344634223455
:1006200041344934493436340C340A3449347F3443
:1006300048342F3449344934493431343E34493410
:1006400049344934323401347134093405340334C3
:1006500036344934493449343634263449344934FB
:1006600049343E347E340934093409347E347F34CD
:1006700049344934493436343E34413441344134C8
:1006800022347F344134413441343E347F34493460
:100690004934493441347F34093409340934093444
:1006A0003E344134493449343A347F3408340834D0
:1006B00008347F34003441347F34413400343034E2
:1006C000403441343F3401347F3408340834143426
:1006D000633400347F344034403440347F34023457
:1006E0000C3402347F347F3402340C3410347F34C1
:1006F0003E344134413441343E347F34093409348A
:10070000093406343E344134513421345E347F346C
:100710000934193429344634463449344934493487
:100720003134013401347F34013401343F344034F6
:10073000403440343F341F342034403420341F349C
:100740003F344034383440343F3463341434083454
:100750001434633407340834703408340734613493
:100760005134493445344334003460346034003407
:100770000034003400345E340034003436344934FC
:10078000553422345034023401345134093406349F
:0A07900000345034303400340034DB
:020000040001F9
:04000E00C4C9FDDE86
:00000001FF
